{
  "_format": "hh-sol-artifact-1",
  "contractName": "UserManagement",
  "sourceName": "contracts/UserManagement.sol",
  "abi": [
    {
      "inputs": [],
      "stateMutability": "nonpayable",
      "type": "constructor"
    },
    {
      "anonymous": false,
      "inputs": [
        {
          "indexed": true,
          "internalType": "address",
          "name": "user",
          "type": "address"
        }
      ],
      "name": "UserLoggedIn",
      "type": "event"
    },
    {
      "anonymous": false,
      "inputs": [
        {
          "indexed": true,
          "internalType": "address",
          "name": "user",
          "type": "address"
        },
        {
          "indexed": false,
          "internalType": "string",
          "name": "phoneNumber",
          "type": "string"
        }
      ],
      "name": "UserRegistered",
      "type": "event"
    },
    {
      "inputs": [
        {
          "internalType": "bytes",
          "name": "signature",
          "type": "bytes"
        }
      ],
      "name": "loginUser",
      "outputs": [
        {
          "internalType": "bool",
          "name": "",
          "type": "bool"
        }
      ],
      "stateMutability": "nonpayable",
      "type": "function"
    },
    {
      "inputs": [
        {
          "internalType": "address",
          "name": "",
          "type": "address"
        }
      ],
      "name": "phoneNumbers",
      "outputs": [
        {
          "internalType": "string",
          "name": "",
          "type": "string"
        }
      ],
      "stateMutability": "view",
      "type": "function"
    },
    {
      "inputs": [
        {
          "internalType": "string",
          "name": "phoneNumber",
          "type": "string"
        }
      ],
      "name": "registerUser",
      "outputs": [],
      "stateMutability": "nonpayable",
      "type": "function"
    }
  ],
  "bytecode": "0x60806040523480156200001157600080fd5b507f8b73c3c69bb8fe3d512ecc4cf759cc79239f7b179b0ffacaa9a75d522b39400f6040518060400160405280600e81526020017f557365724d616e6167656d656e74000000000000000000000000000000000000815250805190602001206040518060400160405280600181526020017f3100000000000000000000000000000000000000000000000000000000000000815250805190602001204630604051602001620000c595949392919062000162565b60405160208183030381529060405280519060200120600181905550620001bf565b6000819050919050565b620000fc81620000e7565b82525050565b6000819050919050565b620001178162000102565b82525050565b600073ffffffffffffffffffffffffffffffffffffffff82169050919050565b60006200014a826200011d565b9050919050565b6200015c816200013d565b82525050565b600060a082019050620001796000830188620000f1565b620001886020830187620000f1565b620001976040830186620000f1565b620001a660608301856200010c565b620001b5608083018462000151565b9695505050505050565b61103580620001cf6000396000f3fe608060405234801561001057600080fd5b50600436106100415760003560e01c80630c2e2cee14610046578063704f1b94146100765780637723c07c14610092575b600080fd5b610060600480360381019061005b919061062c565b6100c2565b60405161006d9190610694565b60405180910390f35b610090600480360381019061008b9190610705565b61026b565b005b6100ac60048036038101906100a791906107b0565b6103e5565b6040516100b9919061086d565b60405180910390f35b6000806000803373ffffffffffffffffffffffffffffffffffffffff1673ffffffffffffffffffffffffffffffffffffffff168152602001908152602001600020805461010e906108be565b905011610150576040517f08c379a00000000000000000000000000000000000000000000000000000000081526004016101479061093b565b60405180910390fd5b60006001543360405160200161016691906109fa565b6040516020818303038152906040528051906020012060405160200161018d929190610a4b565b6040516020818303038152906040528051906020012090503373ffffffffffffffffffffffffffffffffffffffff166101c7828686610485565b73ffffffffffffffffffffffffffffffffffffffff161461021d576040517f08c379a000000000000000000000000000000000000000000000000000000000815260040161021490610ac3565b60405180910390fd5b3373ffffffffffffffffffffffffffffffffffffffff167f8d15fde878cff665868ed7579eb5081db6508d4249df61dcdd7699a5301d987460405160405180910390a2600191505092915050565b60008282604051602001610280929190610b17565b60405160208183030381529060405280519060200120905060008060003373ffffffffffffffffffffffffffffffffffffffff1673ffffffffffffffffffffffffffffffffffffffff16815260200190815260200160002080546102e3906108be565b905014610325576040517f08c379a000000000000000000000000000000000000000000000000000000000815260040161031c90610b7c565b60405180910390fd5b806040516020016103369190610b9c565b6040516020818303038152906040526000803373ffffffffffffffffffffffffffffffffffffffff1673ffffffffffffffffffffffffffffffffffffffff168152602001908152602001600020908161038f9190610d9c565b503373ffffffffffffffffffffffffffffffffffffffff167f48cac28ad4dc618e15f4c2dd5e97751182f166de97b25618318b2112aa951a2f84846040516103d8929190610e9b565b60405180910390a2505050565b60006020528060005260406000206000915090508054610404906108be565b80601f0160208091040260200160405190810160405280929190818152602001828054610430906108be565b801561047d5780601f106104525761010080835404028352916020019161047d565b820191906000526020600020905b81548152906001019060200180831161046057829003601f168201915b505050505081565b600080600080604186869050146104d1576040517f08c379a00000000000000000000000000000000000000000000000000000000081526004016104c890610f0b565b60405180910390fd5b60008686905067ffffffffffffffff8111156104f0576104ef610bb7565b5b6040519080825280601f01601f1916602001820160405280156105225781602001600182028036833780820191505090505b50905085600060208301376020810151935060408101519250606081015160001a9150601b8260ff16101561056157601b8261055e9190610f67565b91505b600188838686604051600081526020016040526040516105849493929190610fba565b6020604051602081039080840390855afa1580156105a6573d6000803e3d6000fd5b505050602060405103519450505050509392505050565b600080fd5b600080fd5b600080fd5b600080fd5b600080fd5b60008083601f8401126105ec576105eb6105c7565b5b8235905067ffffffffffffffff811115610609576106086105cc565b5b602083019150836001820283011115610625576106246105d1565b5b9250929050565b60008060208385031215610643576106426105bd565b5b600083013567ffffffffffffffff811115610661576106606105c2565b5b61066d858286016105d6565b92509250509250929050565b60008115159050919050565b61068e81610679565b82525050565b60006020820190506106a96000830184610685565b92915050565b60008083601f8401126106c5576106c46105c7565b5b8235905067ffffffffffffffff8111156106e2576106e16105cc565b5b6020830191508360018202830111156106fe576106fd6105d1565b5b9250929050565b6000806020838503121561071c5761071b6105bd565b5b600083013567ffffffffffffffff81111561073a576107396105c2565b5b610746858286016106af565b92509250509250929050565b600073ffffffffffffffffffffffffffffffffffffffff82169050919050565b600061077d82610752565b9050919050565b61078d81610772565b811461079857600080fd5b50565b6000813590506107aa81610784565b92915050565b6000602082840312156107c6576107c56105bd565b5b60006107d48482850161079b565b91505092915050565b600081519050919050565b600082825260208201905092915050565b60005b838110156108175780820151818401526020810190506107fc565b60008484015250505050565b6000601f19601f8301169050919050565b600061083f826107dd565b61084981856107e8565b93506108598185602086016107f9565b61086281610823565b840191505092915050565b600060208201905081810360008301526108878184610834565b905092915050565b7f4e487b7100000000000000000000000000000000000000000000000000000000600052602260045260246000fd5b600060028204905060018216806108d657607f821691505b6020821081036108e9576108e861088f565b5b50919050565b7f55736572206e6f74207265676973746572656400000000000000000000000000600082015250565b60006109256013836107e8565b9150610930826108ef565b602082019050919050565b6000602082019050818103600083015261095481610918565b9050919050565b600081905092915050565b7f56657269667920557365723a0000000000000000000000000000000000000000600082015250565b600061099c600c8361095b565b91506109a782610966565b600c82019050919050565b60008160601b9050919050565b60006109ca826109b2565b9050919050565b60006109dc826109bf565b9050919050565b6109f46109ef82610772565b6109d1565b82525050565b6000610a058261098f565b9150610a1182846109e3565b60148201915081905092915050565b6000819050919050565b6000819050919050565b610a45610a4082610a20565b610a2a565b82525050565b6000610a578285610a34565b602082019150610a678284610a34565b6020820191508190509392505050565b7f496e76616c6964207369676e6174757265000000000000000000000000000000600082015250565b6000610aad6011836107e8565b9150610ab882610a77565b602082019050919050565b60006020820190508181036000830152610adc81610aa0565b9050919050565b82818337600083830152505050565b6000610afe838561095b565b9350610b0b838584610ae3565b82840190509392505050565b6000610b24828486610af2565b91508190509392505050565b7f5573657220616c72656164792072656769737465726564000000000000000000600082015250565b6000610b666017836107e8565b9150610b7182610b30565b602082019050919050565b60006020820190508181036000830152610b9581610b59565b9050919050565b6000610ba88284610a34565b60208201915081905092915050565b7f4e487b7100000000000000000000000000000000000000000000000000000000600052604160045260246000fd5b60008190508160005260206000209050919050565b60006020601f8301049050919050565b600082821b905092915050565b600060088302610c487fffffffffffffffffffffffffffffffffffffffffffffffffffffffffffffffff82610c0b565b610c528683610c0b565b95508019841693508086168417925050509392505050565b6000819050919050565b6000819050919050565b6000610c99610c94610c8f84610c6a565b610c74565b610c6a565b9050919050565b6000819050919050565b610cb383610c7e565b610cc7610cbf82610ca0565b848454610c18565b825550505050565b600090565b610cdc610ccf565b610ce7818484610caa565b505050565b5b81811015610d0b57610d00600082610cd4565b600181019050610ced565b5050565b601f821115610d5057610d2181610be6565b610d2a84610bfb565b81016020851015610d39578190505b610d4d610d4585610bfb565b830182610cec565b50505b505050565b600082821c905092915050565b6000610d7360001984600802610d55565b1980831691505092915050565b6000610d8c8383610d62565b9150826002028217905092915050565b610da5826107dd565b67ffffffffffffffff811115610dbe57610dbd610bb7565b5b610dc882546108be565b610dd3828285610d0f565b600060209050601f831160018114610e065760008415610df4578287015190505b610dfe8582610d80565b865550610e66565b601f198416610e1486610be6565b60005b82811015610e3c57848901518255600182019150602085019450602081019050610e17565b86831015610e595784890151610e55601f891682610d62565b8355505b6001600288020188555050505b505050505050565b6000610e7a83856107e8565b9350610e87838584610ae3565b610e9083610823565b840190509392505050565b60006020820190508181036000830152610eb6818486610e6e565b90509392505050565b7f496e76616c6964207369676e6174757265206c656e6774680000000000000000600082015250565b6000610ef56018836107e8565b9150610f0082610ebf565b602082019050919050565b60006020820190508181036000830152610f2481610ee8565b9050919050565b600060ff82169050919050565b7f4e487b7100000000000000000000000000000000000000000000000000000000600052601160045260246000fd5b6000610f7282610f2b565b9150610f7d83610f2b565b9250828201905060ff811115610f9657610f95610f38565b5b92915050565b610fa581610a20565b82525050565b610fb481610f2b565b82525050565b6000608082019050610fcf6000830187610f9c565b610fdc6020830186610fab565b610fe96040830185610f9c565b610ff66060830184610f9c565b9594505050505056fea2646970667358221220a44628f06e61632f310f529f55e7345b55a27c1f0b7edf15a8ff7a4735fc1c8964736f6c63430008140033",
  "linkReferences": {},
  "deployedLinkReferences": {}
}